:020000040800F2
:100000000007002091010008991E000869190008E6
:10001000951E000861050008AD1E000800000000E4
:10002000000000000000000000000000A11E000809
:1000300065050008000000009D1E0008A51E0008C0
:10004000AB010008AB010008AB010008AB010008E0
:10005000AB010008AB010008AB010008AB010008D0
:10006000AB010008AB010008AB010008AB010008C0
:10007000AB010008AB010008AB010008AB010008B0
:10008000AB010008AB010008AB010008AB010008A0
:10009000AB010008AB010008AB010008AB01000890
:1000A000AB010008AB010008AB010008AB01000880
:1000B000AB010008AB010008AB010008AB01000870
:1000C000AB010008AB010008AB010008AB01000860
:1000D000AB010008AB010008AB010008AB01000850
:1000E000AB010008AB010008AB01000800F002F80A
:1000F00000F03FF80AA090E8000C82448344AAF183
:100100000107DA4501D100F034F8AFF2090EBAE880
:100110000F0013F0010F18BFFB1A43F0010318473B
:100120005C2200007C220000103A24BF78C878C10D
:10013000FAD8520724BF30C830C144BF04680C60ED
:10014000704700000023002400250026103A28BF35
:1001500078C1FBD8520728BF30C148BF0B60704739
:10016000642900F07180002070471FB51FBD10B5D5
:1001700010BD00F0BAF91146FFF7F7FF01F084FF58
:1001800000F0D8F903B4FFF7F2FF03BC00F0E0F988
:100190000948804709480047FEE7FEE7FEE7FEE71B
:1001A000FEE7FEE7FEE7FEE7FEE7FEE70448054957
:1001B000054A064B70470000A91E0008ED00000824
:1001C00000010020000700200003002000030020A1
:1001D0000FB41CB5074B06AA7B44694600900598EE
:1001E00000F06BF90020694600F07AF91CBC5DF85C
:1001F00014FB00000503000070B504468569006823
:10020000C10601D5302600E02026C00707D070BD0A
:10021000D4E9012130469047206A401C20626D1EBF
:10022000F6D570BD70B5044685690078C00707D162
:1002300070BDD4E9012120209047206A401C206233
:100240006D1EF6D570BD00002DE9F0410646002474
:1002500010687529314616A510D0AFF3008000282C
:1002600002DA404213A507E031688A0701D512A5DA
:1002700002E0490704D511A5012401E0AFF3008095
:1002800000210A2206F1240709E0B0FBF2FCB0FBD2
:10029000F2F302FB1C00303078541846491C002849
:1002A000F3D123462A463046BDE8F04100F0A7B816
:1002B000000000002D0000002B00000020000000C6
:1002C0002DE9F05F894604464FF0000ADFF824B1BB
:1002D000FB44C0F820A02046E168884700287DD074
:1002E000252806D0D4E901219047206A401C2062CD
:1002F000F1E700255F462046E1688847202806464A
:1003000007DB312E05D2B81910F8200C08B10543CF
:10031000F1E7A80701D525F00405C4F81CA00027C3
:10032000C4F818A02A2E09D0304602F001F838B3DC
:1003300004EB8708303EC8F8186019E059F8041B30
:10034000204604EB87029161E1688847012F064649
:1003500018D1E069002820DA25F020051DE0D8F842
:10036000180000EB800006EB40003038C8F8180099
:100370002046E1688847064601F0DAFF0028EED102
:10038000012F0AD02E2E08D12046E16888477F1C15
:100390000646022F45F02005C4DBA069002803DAD9
:1003A000404245F00105A061E80701D025F01005A5
:1003B000A6B1A6F14100192802D8203645F40065FF
:1003C0004A463146204625604D46FFF7C9FE60B1DA
:1003D000012807D0ED1D25F0070000E007E000F13F
:1003E000080978E705F1040975E730467AE7206ADD
:1003F000BDE8F09F6A2000007047704770472DE904
:10040000F0470D4699469246044600F124080168DB
:10041000880604D5E06921F01001216000E0012088
:10042000A84201DD471B00E00027A1697A1902EB11
:100430000900081AA0612078C00602D42046FFF700
:10044000DBFE002608E0D4E901211AF806009047F7
:10045000206A401C761C20624E45F4DB2078C006E2
:100460000AD52046FFF7C8FE06E0D4E90121302076
:100470009047206A401C2062381EA7F10107F4DC77
:1004800007E0D4E9012118F805009047206A401CD4
:100490002062281EA5F10105F3DC2046FFF7C2FE0D
:1004A0002078000602D50220BDE8F0870120FBE796
:1004B00001694A1C02610878704700B58FB0CDE928
:1004C00001310021059105497944CDE90310114618
:1004D0006846FFF7F5FE0FB000BD0000E5FFFFFF27
:1004E0000A6802F8010B0A607047754600F02CF8A4
:1004F000AE4605006946534620F00700854618B011
:1005000020B5FFF753FEBDE820404FF000064FF046
:1005100000074FF000084FF0000BAC46ACE8C009F4
:10052000ACE8C009ACE8C009ACE8C00921F007019B
:100530008D46704710B50446AFF300802046BDE8F5
:100540001040FFF71FBE0000004870471000002059
:1005500001491820ABBEFEE72600020070470000EC
:10056000FEE7000070470000B0B5044600F028F92F
:10057000054640F20000C2F200000078611C18BF7E
:10058000044400BF00F01CF9401BA042FAD3B0BDE8
:100590002DE9F04F82B041F20042C4F201020E6830
:1005A0000423904208BF0323002E009300F0F6803E
:1005B00040F20C4E4FF6FF7CC4F2010E00220124E3
:1005C000C1F2100C4FF0000A4FF0000943E000BFE9
:1005D000012502F00C040F27A7402BEA070705FAB4
:1005E00004F43C4343F82640D1F804B040F20045FF
:1005F000C4F201055FEACB332B6854BF23EA08033A
:1006000043EA08032B606B685FEA8B3454BF23EA2C
:10061000080343EA08036B605FEACB24AB6854BF6E
:1006200023EA080343EA08035FEA8B24AB60DEF8A1
:1006300000304FF0010454BF23EA080343EA0803E3
:10064000CEF800300E680AF1010A36FA0AF302F118
:10065000040200F0A38004FA0AF816EA080FF1D0A9
:100660004B68634512DC122B56D8DFE803F0350BDC
:100670004549555555555555555555555555554D4E
:10068000510000BFD1F80C9046E000BF4FF6FF7755
:10069000C1F22107BB420FDC0027C1F21107BB42A8
:1006A0001AD00027C1F21207BB4215D00027C1F2B1
:1006B0002107BB4210D02FE00027C1F22207BB4226
:1006C0000AD00027C1F23107BB4205D00027C1F292
:1006D0003207BB4220D100BF8B684BB1012B14BF46
:1006E000C0F81480C0F810804FF0080914E000BF73
:1006F0004FF0040910E000BFCB6803F108090BE0DC
:100700004FF0000908E000BFCB6803F1040903E0E3
:10071000CB6803F10C0900BF13460546BAF1080F78
:1007200024BF203B04352E680F279F40BE4309FAA3
:1007300003F333432B60CB79DB067FF583AF41F2C4
:100740001804C4F2020423684FEA9A0643F0010336
:100750002360236840F6000403F001030193019B2A
:1007600040F20043C4F20103A3F57E7353F826B0B0
:10077000C4F20104A0420FD040F60044C4F20104C8
:10078000A0423FF425AF41F20004C4F20104009DF1
:10079000A04208BF02251CE700251AE702B0BDE809
:1007A000F08F0000C26802EA0103914341EA03416D
:1007B00001617047002A08BF090401617047000009
:1007C00040F2FC00C2F200000068704770B5B8B398
:1007D000044690F83D0028B9002084F83C002046EB
:1007E00000F008FD242084F83D002068016821F015
:1007F00001010160016841F400410160016821F4D8
:100800000041016000F0ACFE48F28041C0F21E01E0
:1008100040F60013D4F804E088424FF00001C0F223
:100820003D0348F2A16C4FF0000238BF012198420D
:10083000C0F2010C38BF0122E64538BF0A460AB1B2
:10084000012070BD4DF68361C4F21B31A0FB011283
:100850002168950C4B684FF4967623F03F0343EAEA
:100860009243754344F6D3564B60C1F262060B6A5D
:10087000A5FB0656B50923F03F03E64538BF950CA6
:100880006A1C1A430A62CA6948F2A0664CF6FF73F2
:10089000C0F20106B64522EA03020BD801384FEA3E
:1008A0004E03B0FBF3F001306FF31F30042898BF04
:1008B00004201EE0A368013863B119230EFB03F383
:1008C000B0FBF3F001306FF31F3078B100F58040DA
:1008D00008E000BF0EEB4E03B0FBF3F001306FF306
:1008E0001F3028B100F5004003E000BF012000E008
:1008F00001201043C8610868D4E9072320F0C00034
:10090000104318430860886848F2FF3204F10C066F
:1009100090434CCE18431043A5698860C86820F006
:10092000FF0030432843C860086840F001000860B9
:1009300000202021206484F83D10206384F83E00CC
:1009400070BD00002DE9F04381B01F461646884671
:100950000446FFF735FF94F83D10202920D10546C5
:1009600020688169890717D5FFF72AFF401B1928DE
:10097000F6D900202021206384F83D1084F83E0041
:10098000216C022641F02001216484F83C003046AD
:1009900001B0BDE8F08300BF94F83C10012905D1F7
:1009A0000226304601B0BDE8F08300BF012184F883
:1009B0003C100168C90703D1016841F001010160E1
:1009C000016821F400610160212184F83D101021AB
:1009D00084F83E100021216466626785618D21855F
:1009E0000021CFF6FF71E162E16A11F5803F18BF87
:1009F000012919D1016841F4807101604169DDF874
:100A00002090C90723D119F1010116D0B9F1000FC7
:100A100046D000BFFFF7D4FE401B484542D82068AF
:100A20004169C907F6D012E00829E3D0216B1229E9
:100A3000E0D0E3E74169C90709D14169C90706D197
:100A40004169C90704BF41695FEAC171F2D02169F8
:100A5000B1F5804F02D1FE2161E000BF062101EA1D
:100A6000D811F03101614169090757D4416919F181
:100A7000010201F480612FD0002946D1B9F1000FA5
:100A800000F04281FFF79CFE401B484500F23E818A
:100A900020684169090741D441694905F2D534E02C
:100AA000FFF78EFE00202021206384F83D1084F89B
:100AB0003E00216C012641F020012164216884F868
:100AC0003C000868C00544BF4FF400702064304605
:100AD00001B0BDE8F08300BFB9B9416909071DD471
:100AE0004169490511D44169090717D4416949058C
:100AF0000BD44169090711D44169490505D44169FD
:100B000009070BD441694905E7D5016841F4007133
:100B100001606FF4806141610420F8E0FF2101EA87
:100B200008010161416989073AD4416919F101025B
:100B300001F4806112D051BBB9F1000F00F0E080E8
:100B4000FFF73EFE401B484500F2DC80206841690B
:100B5000890725D441694905F2D518E0B9B9416939
:100B600089071DD44169490511D44169890717D402
:100B7000416949050BD44169890711D44169490587
:100B800005D4416989070BD441694905E7D5016856
:100B900041F4007101606FF4806141610420B6E0AE
:100BA0000026009641690091816900910099218D8C
:100BB000002900F0958009F10108014651F8142F31
:100BC000120635D4B8F1000F16D0B9F1000F00F0BD
:100BD000AF8000BF0868400500F1B280FFF7F0FD6C
:100BE000401B484500F2A9802068014651F8142FA7
:100BF0001206EFD51CE000BF0A68520500F1A08084
:100C00000A68120614D40A68520500F199800A682D
:100C100012060DD40A68520500F192800A68120685
:100C200006D40A68520500F18B800A681206E3D5E3
:100C3000636A194611F8012B02616162618D013905
:100C40006185278D0146A7F1010CA4F828C051F851
:100C5000142F52070DD55FEA0C420AD05A78A7F13B
:100C6000020C02619A1C6262628D013A6285A4F8EC
:100C700028C00A6852072FD4B8F1000F14D0B9F178
:100C8000000F7BD00868400500F18080FFF798FDD9
:100C9000401B484577D82068014651F8142F520769
:100CA000F0D5B4F828C017E00A6852056ED40A6877
:100CB000520711D40A68520568D40A6852070BD447
:100CC0000A68520562D40A68520705D40A685205B8
:100CD0005CD40A685207E7D55FEA0C417FF46DAF38
:100CE000016841F400710160202084F83D0084F81F
:100CF0003E6084F83C60304601B0BDE8F08300BF40
:100D0000FFF75EFD202002E0FFF75AFD20200021C2
:100D10002022216384F83D2084F83E10226C0126B5
:100D20001043206484F83C10304601B0BDE8F083E5
:100D30000868400504D4FFF743FD202004E000BF0D
:100D40006FF480600860042000212022216384F871
:100D50003D2084F83E10226C1043206484F83C103F
:100D6000206C042825D120680126016841F4007117
:100D70000160304601B0BDE8F08300BF086840055F
:100D800004D4FFF71DFD202004E000BF6FF4806055
:100D90000860042000212022216384F83D2084F88B
:100DA0003E10226C1043206484F83C10206C042810
:100DB000D9D00126304601B0BDE8F0832DE9F04FCF
:100DC00085B0044600201E4617460D460490FFF7E6
:100DD000F7FC94F83D10202923D1804620688169D2
:100DE000890719D5FFF7ECFCA0EB08001928F5D905
:100DF00000202021206384F83D1084F83E00206C00
:100E000004F13C0940F0200020640220002189F810
:100E1000001005B0BDE8F08FA14619F83C1F01296C
:100E200004D1022005B0BDE8F08F00BF012289F88F
:100E300000200368DDE90F1A0E9ADB0703D103686F
:100E400043F001030360036823F40063036022207E
:100E500084F83D00402084F83E0000202064626257
:100E60006185608D294620850020CFF6FF70E06205
:100E700020463A463346CDF800A0CDF8048000F075
:100E800075FD18B1012005B0BDE8F08F208D022856
:100E900010D0012824D0002838D1002003902068E9
:100EA00041690391816903910399016841F40071DB
:100EB000016037E02068016841F400610160EFF3F0
:100EC000108072B600200390206841690391816907
:100ED00003910399016821F48061016062B621E009
:100EE0002068016821F480610160EFF3108072B620
:100EF000002003902068416903918169039103995F
:100F0000016841F40071016062B60BE0206801687D
:100F100041F480610160002103914169039180697E
:100F200003900398208D002800F0238140F2080BE5
:100F30004BF289570AF10105C2F2000BC1F2F847E2
:100F4000232680B2032819D8022845D001286FD162
:100F5000BAF1000F00F0FA802068014651F8142F12
:100F6000520600F1F7800868C00600F12F81FFF7F4
:100F700027FCA0EB08005045EED91CE1BAF1000FA8
:100F800012D000BF2068014651F8142F520610D429
:100F90000868C00600F11A81FFF712FCA0EB0800F8
:100FA0005045EFD907E100BF20684169490640F18B
:100FB000FB800069616A0870606A2268411C208DAC
:100FC000616201382085638D013B638553695B074E
:100FD00040F1CC801069BFE020684169490711D415
:100FE000002D00F09380BAF1000F00F0E280FFF7CF
:100FF000E7FBA0EB0800504500F2DD802068406967
:101000004007F4D5EFF3108072B62068616A026879
:1010100042F40072026000690870606A218D01303C
:101020006062481E2085608D0138608562B668E088
:1010300020684169490710D4002D77D0BAF1000F1C
:1010400000F0B780FFF7BCFBA0EB0800504500F2B2
:10105000B280206841694907F4D5016821F48061B4
:101060000160EFF3108072B62068616A0069087051
:10107000606A218D0130013960622185618D0139FD
:101080006185DBF80010C908A1FB0712110A714342
:1010900004910499013904910499002976D02168BA
:1010A0004A6952071DD40499013904910499002911
:1010B0006CD021684A69520713D40499013904910C
:1010C0000499002962D021684A69520709D4049919
:1010D000013904910499002958D021684A695207BE
:1010E000D7D50A6842F400720A6009690170606A23
:1010F000218D01306062481E2085608D0138608539
:1011000062B62068616A006926E000BF416949074C
:101110003FF578AF416949075CBF41695FEA4171BA
:101120003FF570AF41694907F0D56BE74169490761
:1011300093D4416949075CBF41695FEA41713FF55A
:101140008CAF41694907F1D587E700BF2068416945
:10115000490629D50069616A0870606A218D0130ED
:101160006062481E2085618D0139618501047FF42C
:10117000E8AE202084F83D00002084F83E000021E5
:1011800089F8001005B0BDE8F08F00BF00202021D5
:10119000206384F83D1084F83E00206C40F020006D
:1011A000206462B61EE000BF50F8141FC906014655
:1011B0000CD4FFF705FB00202021206384F83D10AC
:1011C00084F83E00206C40F020000AE06FF0100030
:1011D000086000202021206384F83D1084F83E0040
:1011E000206C20640120002189F8001005B0BDE8C2
:1011F000F08F000010B586B045F200410068C4F2DF
:10120000000100228842049202D006B010BD00BF47
:1012100041F21804C4F20204206840F00800206083
:10122000206800F0080001900198C0200290122070
:1012300003900320059001F5384002A9FFF7A8F9B3
:10124000606840F400106060606800F40010019075
:10125000019806B010BD000040F2000040F2FC0111
:10126000C2F20000C2F2000100780A68104408606F
:101270007047000080B542F20000C4F2020001682D
:1012800041F010010160032000F07AF80F2000F017
:1012900005F800F027F8002080BD000070B540F28E
:1012A0000006C2F2000640F208013278C2F20001E4
:1012B0004FF47A730968B3FBF2F20446B1FBF2F122
:1012C000084600F03BFB0F2C4FF0010508D838B959
:1012D0004FF0FF3021460022002500F025F8746011
:1012E000284670BD82B041F21800C4F202000168C5
:1012F000022241F001010160016801F00101019148
:101300000199416841F080514160406800F080508F
:10131000009000980420C4F20100016862F31A6191
:10132000016002B07047000010B54EF60C5CCEF2C2
:10133000000CDCF80030C3F3022E8EF00704042CFE
:1013400028BF0424BEF103034FF0FF3E0EFA04F45D
:1013500038BF0023A14399400EFA03F39A43114387
:1013600000F00F02043A624409010C3200F16043BC
:10137000B0F1FF3FC8BF03F56442117010BD00001B
:101380004EF60C51CEF200010A684FF6FF031A40E8
:1013900060F30A2242F0806040F0FD700860704700
:1013A0002DE9F04381B0002800F0858042F200086A
:1013B000C4F202080446D8F800000D4600F0070009
:1013C00088420CD2D8F8000020F007002843C8F863
:1013D0000000D8F8000000F00700A8426BD1206898
:1013E00041F204098107C4F2020917D5410705D566
:1013F000D9F8001041F4E061C9F80010010705D5E3
:10140000D9F8001041F46051C9F80010D9F8001063
:10141000A26821F0F0011143C9F80010C00741D1C2
:10142000D8F8000000F00700A8420CD9D8F8000056
:1014300020F007002843C8F80000D8F8000000F0AA
:101440000700A84237D12068410707D5D9F8001016
:10145000E26821F4E0611143C9F80010000708D5E3
:10146000D9F80000216920F4605040EAC100C9F8B1
:101470000000D9F8002002F00C00082841F20020FA
:10148000C0F27A0050D142F26933C2F38341C0F610
:101490000003595CD2033BD440F60010C0F23D007B
:1014A000484341E0606802280AD001282AD159F84F
:1014B000041C890308D4012001B0BDE8F08300BFFB
:1014C00059F8041C8901F6D5D9F8001021F0030160
:1014D0000843C9F80000FFF773F9064641F2883760
:1014E000D9F80000616800F00C00B0EB810F97D0D4
:1014F000FFF766F9801BB842F2D9032001B0BDE8BE
:10150000F08300BF59F8041C8907D4D5DCE700BF7D
:10151000D9F8002042F24F33C2F34042C0F6000334
:101520009A5C4843B0FBF2F0D9F8001042F2513215
:10153000C1F30311C0F60002515C40F2080220FA28
:1015400001F140F20400C2F200000068C2F20002A1
:101550001160FFF7A3FE002001B0BDE8F08300009A
:1015600040F2080041F20401C2F20000C4F202019C
:101570000068096842F26132C1F30221C0F600023C
:10158000515CC840704700002DE9F04182B000284E
:1015900068D00446007841F20006C007C4F2020693
:1015A00025D0706800F00C0004281BD0706800F093
:1015B0000C00082802D17068C00313D460680028AA
:1015C00000F06881B0F5A02F00F07C81B0F5803F7D
:1015D00000F07C81306820F480303060306820F486
:1015E000802076E13068800301D56068D0B3207830
:1015F000800718D5706810F00C0F07D0706800F0E5
:101600000C0008286ED17068C0036BD43068800766
:1016100002D52069012825D13068616920F0F800E1
:1016200040EAC1003060207800071FD420784007CE
:1016300032D4E56995B1706800F00C00082840F0DC
:101640008F80012D0ED07068216A00F480328A42AA
:1016500008D1616A00F47010884203D1002002B002
:10166000BDE8F081012002B0BDE8F081A06900284A
:1016700062D00020C4F242200121C0F88014FFF79C
:101680009FF80546706A800700F18C80FFF798F894
:10169000401B0228F6D92AE1F06910F0805808D1E1
:1016A000F06940F08050F061F06900F080500090E7
:1016B000009847F20007C4F200073868C00529D433
:1016C000386840F480703860FFF77AF8054600BF4C
:1016D0003868C0051ED4FFF773F8401B6428F7D99B
:1016E00005E100BF2069002840F20000C4F242205A
:1016F00000F0828001210160FFF762F8054600BF1B
:10170000306880073FF588AFFFF75AF8401B022882
:10171000F6D9ECE0E068002800F08080052800F0B1
:101720009780012800F09880306A20F00100306234
:10173000306A20F0040092E00020C4F24220002130
:10174000C0F88014FFF73CF8054600BF706A8007B8
:101750007FF56CAFFFF734F8401B0228F6D9C6E0DE
:101760000027C4F2422700203866FFF729F8022D2F
:1017700005460BD13068800140F1BE80FFF720F8AC
:10178000401B02284FF00300F4D968E7306880015D
:101790007FF564AFFFF714F8401B02284FF00300F9
:1017A000F4D95CE740F20800C2F20000006844F699
:1017B000D351C1F26201A0FB0101480A019000BFB0
:1017C00000BF0198411E002801913FF42FAF00BFD8
:1017D0000198411E002801913FF428AF00BF0198F5
:1017E000411E002801913FF421AF00BF0198411E26
:1017F00000280191E4D119E700210160FEF7E0FF24
:10180000054600BF306880077FF50DAFFEF7D8FFB3
:10181000401B02284FF00300F4D920E7306A20F083
:1018200001003062306A20F004003062FEF7C8FF29
:10183000054641F2883700BF306A800720D5FEF7A1
:10184000BFFF401BB8424FF00300F5D907E700BFC8
:10185000306A40F004003062306A40F001003062CB
:10186000FEF7AEFF054641F2883700BF306A8007B9
:1018700006D4FEF7A5FF401BB842F7D937E000BFFA
:10188000B8F1000F7FF4D5AEF06920F08050F06120
:10189000CFE600BF306820F480303060306820F43C
:1018A00080203060FEF78CFF054600BF3068800363
:1018B0007FF59DAEFEF784FF401B64284FF00300C8
:1018C000F4D9CCE6306840F480203060306840F4D1
:1018D00080303060FEF774FF054600BF306880033B
:1018E0003FF585AEFEF76CFF401B6428F6D9032058
:1018F00002B0BDE8F08100BF206AB0F5803F05D19D
:101900007168A26821F40031114371607168626AE4
:1019100021F4741110430843706001203866FEF70B
:101920004FFF0446306880013FF598AEFEF748FF50
:10193000001B02284FF00300F4D990E6411E00205E
:10194000B0EB116F1CBF012070474EF21002CEF2B7
:10195000000251604EF62351CEF20001F0230B70CD
:101960000721906011607047FEE700002DE9F04309
:1019700083B00446006899460368904643F4806249
:10198000026002680B9D42F48072026042690A9E06
:10199000D2070F461DD1711C11D0002E00F03681E8
:1019A000FEF70EFF401BB04200F232812068416911
:1019B000C907F5D00DE000BF4169C90709D14169E8
:1019C000C90706D14169C90704BF41695FEAC1710E
:1019D000F2D007F0FE0707614169890738D44169F1
:1019E000721C01F4806111D049BB002E00F03A81D5
:1019F000FEF7E6FE401BB04200F2368120684169E6
:101A0000890725D441694905F2D518E0B9B941697A
:101A100089071DD44169490511D44169890717D443
:101A2000416949050BD44169890711D441694905C8
:101A300005D4416989070BD441694905E7D5016897
:101A400041F4007101606FF48061416104200CE198
:101A500000210291014651F8142F02924A68029225
:101A6000029A0A68120620D4002E00F0AB80721C85
:101A700051D10A68520500F1AD800A68120614D4EB
:101A80000A68520500F1A6800A6812060DD40A6899
:101A9000520500F19F800A68120606D40A685205B2
:101AA00000F198800A681206E3D5B9F1010F45D01C
:101AB0004FEA18210161014651F8142F12063DD456
:101AC000002E00F07F80721C2AD10A68520500F1B6
:101AD00081800A68120631D40A6852057AD40A68ED
:101AE00012062BD40A68520574D40A68120625D44B
:101AF0000A6852056ED40A681206E6D51EE000BFD9
:101B0000FEF75EFE401BB04261D82068014651F8E6
:101B1000142F1206C9D408684005F1D55AE000BF59
:101B20000868400556D4FEF74BFE401BB0424ED825
:101B30002068014651F8142F1206F1D55FFA88F19A
:101B40000161014651F8142F12061AD4D6B3721C43
:101B500033D10A6852053DD40A68120611D40A68C6
:101B6000520537D40A6812060BD40A68520531D4DC
:101B70000A68120605D40A6852052BD40A681206B0
:101B8000E7D50168002241F48071016020464FF0E2
:101B900001113346009500F079F8002850D02068F4
:101BA000006844E0FEF70CFE401BB0420FD82068EE
:101BB000014651F8142F1206E3D408684005F1D508
:101BC00008E000BF0868400504D4FEF7F9FD2020B6
:101BD00004E000BF6FF48060086004200021202230
:101BE000216384F83D2084F83E10226C1043206469
:101BF00084F83C10206C042843D12068016841F42B
:101C000000710160012003B0BDE8F083FEF7D8FD4C
:101C100000202021206384F83D1084F83E00216CD0
:101C200041F020012164216884F83C000868C00567
:101C300044BF4FF400702064032003B0BDE8F0837C
:101C4000206847F0010101610221C0F20101204634
:101C500032462B4600F0C2F8002818BF012003B01E
:101C6000BDE8F083FEF7ACFD202000212022216397
:101C700084F83D2084F83E10226C1043206484F8E0
:101C80003C10012003B0BDE8F08300002DE9F041D5
:101C900005461446DDF8188001F47F002A681E46C8
:101CA000B0F5803F8FB241D150693840C01BB0FAC7
:101CB00080F04009A0427BD1701C2DD0002E7BD03B
:101CC000FEF77EFDA0EB0800B04277D82868406997
:101CD0003840C01BB0FA80F04009A042F0D000208C
:101CE000BDE8F08150693840C01BB0FA80F040096F
:101CF000A0425DD150693840C01BB0FA80F0400965
:101D0000A04255D150693840C01BB0FA80F040095C
:101D1000A0424FF000005FD150693840C01BB0FABC
:101D200080F04009A042DDD042E000BF9069384019
:101D3000C01BB0FA80F04009A04239D1701C1FD0FE
:101D4000D6B300BFFEF73CFDA0EB0800B04235D88B
:101D5000286880693840C01BB0FA80F04009A04272
:101D6000F0D00020BDE8F08190693840C01BB0FA87
:101D700080F04009A0424FF0000018BFBDE8F0819C
:101D800090693840C01BB0FA80F04009A0420FD1E2
:101D900090693840C01BB0FA80F04009A04207D1DA
:101DA00090693840C01BB0FA80F04009A042DBD0F7
:101DB0000020BDE8F08100BFFEF702FD00202021D9
:101DC000286385F83D1085F83E00296C41F020011C
:101DD000296485F83C000120BDE8F081F0B581B0B0
:101DE000044600681D4643698FB203EA0701B94201
:101DF00002D1002001B0F0BD41691646013201F464
:101E000080610FD059BB9EB3FEF7DAFC401BB04295
:101E100030D8206841693940B942EAD04169490562
:101E2000F2D51CE0D9B941693940B942E1D04169E4
:101E3000490514D441693940B942DAD041694905AC
:101E40000DD441693940B942D3D04169490506D41E
:101E500041693940B942CCD041694905E3D50168AF
:101E600041F4007101606FF480614161042002E07F
:101E7000FEF7A6FC202000212022216384F83D20CB
:101E800084F83E10226C1043206484F83C1001203A
:101E900001B0F0BDFEE70000FEE700007047000063
:101EA00070470000FFF7D8B970470000FEE7000058
:101EB00080B582B040F60C00C1F61C00019040F2E3
:101EC000A8004FF0640CC2F2000001AA4E210423C6
:101ED000CDF800C0FEF736FD02B080BD80B582B0FF
:101EE00001F1400363F07F036FF07F02012808BF18
:101EF00081EA020323F00F00190100F10C020830FF
:101F00008DF8050001F10C008DF8060001F10800C4
:101F10008DF8070040F2A8008DF804204FF0640C03
:101F2000C2F2000001AA4E210423CDF800C0FEF742
:101F300009FD02B080BD0000B0B582B043F63C00A0
:101F400040F2A804C3F63C00C2F2000401906425EC
:101F500001AA20464E2104230095FEF7F3FC43F628
:101F60003C00C2F62C00019001AA20464E21042319
:101F70000095FEF7E7FC0120FEF7F6FA42F62C008A
:101F8000C8F68C00019001AA20464E21042300953A
:101F9000FEF7D8FC0120FEF7E7FA40F60C00C1F688
:101FA0001C00019001AA20464E2104230095FEF753
:101FB000C9FC0120FEF7D8FA40F60C00C6F66C000A
:101FC000019001AA20464E2104230095FEF7BAFC99
:101FD0000120FEF7C9FA40F60C00CCF6CC000190C7
:101FE00001AA20464E2104230095FEF7ABFC0120F8
:101FF000FEF7BAFA40F60C00C2F62C00019001AAD6
:1020000020464E2104230095FEF79CFC0120FEF79C
:10201000ABFA48F68C00C0F60C00019001AA2046ED
:102020004E2104230095FEF78DFC02B0B0BD0000E8
:10203000F0B583B0017821B340F2A804461E6427AE
:10204000C2F2000402AD00BF21F00F00090100F14F
:102050000D0209308DF8090001F10D008DF80A001C
:1020600001F109008DF808208DF80B0020464E2163
:102070002A4604230097FEF765FCB1780136002953
:10208000E2D103B0F0BD000092B0FFF7F3F80024F6
:102090000120CDE90D44CDE90B440C9010200D90AA
:1020A0004FF4E0100225119008A8CDE909440895E5
:1020B000CDE90F54FFF768FA20B1EFF3108072B644
:1020C000FEE700BF0F20CDE903054FF48060CDE9A6
:1020D000060403A8012105940124FFF761F928B142
:1020E000EFF3108072B600BFFEE700BF41F21800A8
:1020F000C4F20200016841F2000A41F010010160DF
:102100000168C4F2010A01F0100108910899016800
:10211000002241F00401016001684FF4005501F014
:102120000401089108990168002641F00801016046
:1021300000684FF4005100F00800089008985046DD
:10214000FEF738FB02200DF1200B0B90504659464C
:10215000CDE908540A96FEF71BFA40F2A800AAF54A
:102160003C41C2F2000048F2A0624FF48043C0F24A
:10217000010280E84600C0E90363C0E90566C0E9E2
:102180000766FEF723FB28B1EFF3108072B600BF9D
:10219000FEE700BFFFF7D0FE01200021FFF79EFE03
:1021A00053A0FFF745FF02200021FFF797FE54A040
:1021B000FFF73EFF4FF4FA60FEF7D6F940F2A809A8
:1021C00040F27008C2F20009C2F200084EA754A4FF
:1021D000072001904846D021002201236426CDF833
:1021E00000B00296FEF7EAFD9DF822209DF821102E
:1021F000150905EB850502F00F0202EB450288F890
:1022000002200A099DF8200002EB820201F00F0172
:1022100001EB420188F8011001099DF8233001EB20
:10222000810100F00F0000EB410088F80000180960
:1022300000EB800003F00F0101EB40009DF824103B
:1022400088F80400080900EB800001F00F0101EBA1
:1022500040009DF8251088F80300080900EB800075
:1022600001F00F0101EB40009DF8261088F80500F1
:10227000080900EB800001F00F0101EB400088F835
:102280000600FFF715FE01200021FFF727FE98F852
:10229000006098F8013098F8022008F10F052846F0
:1022A00039460096FDF794FF2846FFF7C1FE02204D
:1022B0000321FFF713FE98F8060098F8032098F81A
:1022C000053008F1230500F5FA66284621460096F8
:1022D000FDF77EFF2846FFF7ABFE50464FF4005156
:1022E000FEF760FA4FF47A70FEF73EF970E700BF30
:1022F0005265616C74696D6520436C6F636B00009F
:102300004E686F6D203130002020202020202530A5
:1023100032643A253032643A2530326400000000DD
:10232000253032642F253032642F2530326400008E
:1023300030380A2801D2012070470020704704007D
:102340000008000000000000000200010000100171
:10235000020000000000000000010203040607085C
:102360000900000000010203040203040506070837
:10237000090A0B0C0D0E0F1010000000A02300081E
:10238000000000201000000028010008B023000811
:1023900010000020F00600004401000800000000CA
:1023A00001000000100000000024F4000000000004
:04000005080000ED02
:00000001FF
